S0210000547261666669635F4C696768745F4657445F50726F6A6563742E7372656377
S113000029C0000001C1000040C000003EC0000043
S11300103CC0000027C1000038C0000036C000000A
S113002034C0000032C0000030C000002EC0000008
S11300302CC000002AC0000028C0000026C0000018
S113004024C0000022C0000020C000001EC0000028
S11300501CC0000011241FBECFE5D8E0DEBFCDBF19
S113006010E0A0E6B0E0E8E8FAE002C005900D92E6
S1130070A436B107D9F720E0A4E6B0E001C01D9290
S1130080A736B207E1F73FD1FDC4BACF109266009C
S113009081E08093630084E190E090936200809318
S11300A06100109265001092640084E08093600007
S11300B060E080E01DD161E080E01AD162E080E080
S11300C017D160E081E014D161E081E011D162E0F8
S11300D081E00ED162E083E008D16FEF82E04CD280
S11300E06CD26DD259C208955ED26BD28CE06DD2BF
S11300F063C0809163008230E9F018F4813039F0F4
S113010058C0833069F1843009F43DC052C060E0C6
S113011080E0F1D061E080E0F1D062E080E0EED0F8
S113012060E081E0EBD061E081E0E8D062E081E072
S1130130E2D042C060E080E0DED061E080E0E1D067
S113014062E080E0DBD060E081E0D8D061E081E073
S1130150D8D062E081E0CFD08AEF90E03AD22CC0D0
S113016060E080E0CBD061E080E0C8D062E080E075
S1130170C2D060E081E0BFD061E081E0BFD062E046
S113018081E0BCD019C060E080E0B8D061E080E0DC
S1130190B8D062E080E0AFD060E081E0ACD061E054
S11301A081E0AFD062E081E0A9D08AEF90E011D283
S11301B003C081E08093630080916600882309F482
S11301C098CF089580916300813051F482E0809348
S11301D063008CE084BD109265001092640008C036
S11301E0823031F48CE084BD10926500109264007A
S11301F09091630080916000891718F481E08093E6
S113020063001092660008951F920F920FB60F922A
S113021011242F933F934F935F936F937F938F9307
S11302209F93AF93BF93EF93FF93809166008F5F8B
S113023080936600813011F4C5DF03C081E08093B0
S11302406600FF91EF91BF91AF919F918F917F9144
S11302506F915F914F913F912F910F900FBE0F902F
S11302601F9018951F920F920FB60F9211242F937F
S11302703F934F935F936F937F938F939F93AF932A
S1130280BF93EF93FF938091640090916500019672
S11302909093650080936400209161003091620026
S11302A08217930779F4109265001092640080918C
S11302B063008F5F853018F48093630003C081E08E
S11302C0809363008CE081D1FF91EF91BF91AF9156
S11302D09F918F917F916F915F914F913F912F915A
S11302E00F900FBE0F901F90189540E00FC0089517
S11302F041E00CC0089541E08AC0089540E087C001
S1130300089506C10895C2DEEFDEFECFCF93DF93DA
S11303101F92CDB7DEB789838981813019F130F01E
S11303208230E1F1833009F454C06DC041110CC036
S11303302AB381E090E002C0880F991F6A95E2F722
S1130340809582238ABB5FC0413009F05CC02AB328
S113035081E090E002C0880F991F6A95E2F7822B32
S11303608ABB51C041110CC027B381E090E002C0A8
S1130370880F991F6A95E2F78095822387BB43C053
S1130380413009F040C027B381E090E002C0880FFB
S1130390991F6A95E2F7822B87BB35C041110CC0C7
S11303A024B381E090E002C0880F991F6A95E2F7B8
S11303B08095822384BB27C0413029F524B381E092
S11303C090E002C0880F991F6A95E2F7822B84BBE4
S11303D01AC041110CC021B381E090E002C0880F23
S11303E0991F6A95E2F78095822381BB0CC0413046
S11303F051F421B381E090E002C0880F991F6A95FF
S1130400E2F7822B81BB0F90DF91CF910895CF93B8
S1130410DF931F92CDB7DEB789838981813019F1CB
S113042030F08230E1F1833009F454C06DC04111E1
S11304300CC02BB381E090E002C0880F991F6A952D
S1130440E2F7809582238BBB5FC0413009F05CC02A
S11304502BB381E090E002C0880F991F6A95E2F700
S1130460822B8BBB51C041110CC028B381E090E0BA
S113047002C0880F991F6A95E2F78095822388BB92
S113048043C0413009F040C028B381E090E002C08D
S1130490880F991F6A95E2F7822B88BB35C04111FA
S11304A00CC025B381E090E002C0880F991F6A95C3
S11304B0E2F78095822385BB27C0413029F525B317
S11304C081E090E002C0880F991F6A95E2F7822BC1
S11304D085BB1AC041110CC022B381E090E002C078
S11304E0880F991F6A95E2F78095822382BB0CC01E
S11304F0413051F422B381E090E002C0880F991F8B
S11305006A95E2F7822B82BB0F90DF91CF91089519
S1130510813089F028F08230C9F0833011F10895D8
S11305202BB381E090E002C0880F991F6A95E2F72F
S113053082278BBB089528B381E090E002C0880F26
S1130540991F6A95E2F7822788BB089525B381E055
S113055090E002C0880F991F6A95E2F7822785BB55
S1130560089522B381E090E002C0880F991F6A9534
S1130570E2F7822782BB0895813041F028F082306F
S113058039F0833039F008956ABB089567BB089544
S113059064BB089561BB08958FB78F778FBF8FB702
S11305A080688FBF089585B7816085BF85B78260F5
S11305B085BF8BB780648BBF089513BE089515BCA7
S11305C00895789480E489BF089584BD87E085BD4B
S11305D008958F929F92AF92BF92CF92DF92EF9243
S11305E0FF920F931F93CF93DF938C01063081E02A
S11305F01807A0F4B80180E090E076D19B01AC012B
S11306006FE672E183E893E463D02FE632E143E8D6
S11306105FE3D6D03DD1C1E0D0E003C060E0C0E0EC
S1130620D0E0063081E0180709F440C050F1B80169
S113063080E090E059D14B015C012FE632E143E8C0
S113064053E4BED0AAD024D16B017C01EB012FE688
S113065032E143E85FE3C501B401B2D04B015C0170
S1130660B60180E090E040D19B01AC01C501B4012A
S1130670A7D09B01AC0160E070E080E893E428D04F
S113068007D113BE209771F080E090E035E021E0BF
S113069062BF33BF08B600FEFDCF28BF01968C179A
S11306A09D07B1F713BE81E088BF05C013BE60E0AB
S11306B0C1E0D0E0E9CFDF91CF911F910F91FF907E
S11306C0EF90DF90CF90BF90AF909F908F90089560
S11306D05058BB27AA270ED084C175D130F07AD1E7
S11306E020F031F49F3F11F41EF46AC10EF4E0953A
S11306F0E7FB37C1E92F86D180F3BA176207730786
S11307008407950718F071F49EF5B5C10EF4E095D1
S11307100B2EBA2FA02D0B01B90190010C01CA01B7
S1130720A0011124FF27591B99F0593F50F4503E62
S113073068F11A16F040A22F232F342F4427585F54
S1130740F3CF469537952795A795F0405395C9F76C
S11307507EF41F16BA0B620B730B840BBAF0915024
S1130760A1F0FF0FBB1F661F771F881FC2F70EC0C3
S1130770BA0F621F731F841F48F487957795679596
S1130780B795F7959E3F08F0B3CF9395880F08F07F
S11307909927EE0F97958795089556D180F09F3746
S11307A040F491110EF468C160E070E080E89FE3CA
S11307B0089526F01B16611D711D811DD8C0F2C05D
S11307C00CD00FC107D140F0FED030F021F45F3FD0
S11307D019F0C7C0511150C1F3C014D198F3992333
S11307E0C9F35523B1F3951B550BBB27AA276217F1
S11307F07307840738F09F5F5F4F220F331F441F36
S1130800AA1FA9F333D00E2E3AF0E0E830D091506D
S11308105040E695001CCAF729D0FE2F27D0660F5A
S1130820771F881FBB1F261737074807AB07B0E899
S113083009F0BB0B802DBF01FF2793585F4F2AF0AF
S11308409E3F510568F08DC017C15F3FECF3983EA1
S1130850DCF3869577956795B795F7959F5FC9F70C
S1130860880F911D9695879597F90895E1E0660F95
S1130870771F881FBB1F621773078407BA0720F00E
S1130880621B730B840BBA0BEE1F88F7E095089577
S1130890C1D088F09F5790F0B92F9927B751A0F095
S11308A0D1F0660F771F881F991F1AF0BA95C9F700
S11308B012C0B13081F0DFD0B1E00895DCC0672F01
S11308C0782F8827B85F39F0B93FCCF386957795B0
S11308D06795B395D9F73EF4909580957095619599
S11308E07F4F8F4F9F4F0895E89409C097FB3EF4C4
S11308F090958095709561957F4F8F4F9F4F992369
S1130900A9F0F92F96E9BB279395F69587957795E6
S11309106795B795F111F8CFFAF4BB0F11F460FFA6
S11309201BC06F5F7F4F8F4F9F4F16C0882311F0FE
S113093096E911C0772321F09EE8872F762F05C012
S1130940662371F096E8862F70E060E02AF09A95AD
S1130950660F771F881FDAF7880F9695879597F9A2
S1130960089597F99F6780E870E060E00895882310
S113097071F4772321F09850872B762F07C06623D4
S113098011F499270DC09051862B70E060E02AF095
S11309909A95660F771F881FDAF7880F96958795C3
S11309A097F908959F3F31F0915020F487957795FA
S11309B06795B795880F911D9695879597F9089532
S11309C09FEF80EC089500240A9416161706180663
S11309D00906089500240A9412161306140605063F
S11309E00895092E0394000C11F4882352F0BB0FD0
S11309F040F4BF2B11F460FF04C06F5F7F4F8F4F33
S1130A009F4F089557FD9058440F551F59F05F3F6D
S1130A1071F04795880F97FB991F61F09F3F79F01C
S1130A2087950895121613061406551FF2CF46959E
S1130A30F1DF08C0161617061806991FF1CF869520
S1130A407105610508940895E5DFA0F0BEE7B917C4
S1130A5088F4BB279F3860F41616B11D672F782FD2
S1130A608827985FF7CF869577956795B11D9395FD
S1130A709639C8F30895E894BB2766277727CB01F6
S10B0A8097F90895F894FFCFE3
S1070A88041400014D
S9030000FC
